S0150000747261666669635F6C696768742E73726563B9
S11300000C942A000C94B9010C943C000C943C0010
S11300100C943C000C943C000C943C000C943C006C
S11300200C943C000C943C000C943C000C943C005C
S11300300C943C000C943C000C943C000C943C004C
S11300400C943C000C943C000C943C000C943C003C
S11300500C943C0011241FBECFE5D8E0DEBFCDBF19
S113006020E0A0E6B0E001C01D92A336B207E1F79C
S11300700E94F3010C9450040C94000060E080E0B2
S11300800E94CA0160E081E00E94CA0160E082E04F
S11300900E94CA0161E080E00E94CA0161E081E03F
S11300A00E94CA0161E082E00E94CA0163E082E02A
S11300B00E94EF0180E00E940E0380E00E9433035F
S11300C00E9400030E94FC020E940A03089580918A
S11300D060008111A3C061E082E00E94CE0160E073
S11300E080E00E94CE0110926200109261000FC065
S11300F080916000813079F060E070E088EC92E4F7
S11301000E943503809161008F5F8093610080912C
S11301106100823368F3809160008130C1F260E055
S113012080E00E94D20160E081E00E94D60181E07B
S1130130809362001092610013C060E081E00E942D
S1130140D60180916000813079F060E070E080E851
S11301509FE30E943503809161008F5F809361006B
S113016080916100893148F380916000813009F405
S1130170AECF60E081E00E94D20160E082E00E94A4
S1130180CE0182E080936200109261000FC08091E2
S11301906000813079F060E070E088EC92E40E94C5
S11301A03503809161008F5F8093610080916100CD
S11301B0823368F380916000813009F488CF60E075
S11301C082E00E94D20160E081E00E94D60181E0D9
S11301D0809362001092610013C060E081E00E948D
S11301E0D60180916000813079F060E070E080E8B1
S11301F09FE30E943503809161008F5F80936100CB
S113020080916100893148F380916000813009F464
S11302105ECF60E081E00E94D20159CF813009F0C5
S113022056CF80916200823009F041C061E00E94A3
S1130230D20161E080E00E94CE0160E082E00E9491
S1130240CE01109261000BC060E070E088EC92E493
S11302500E943503809161008F5F809361008091DB
S11302606100823388F360E082E00E94D20161E0A1
S113027080E00E94D2011092610013C060E081E02E
S11302800E94D60161E081E00E94D60160E070E046
S113029080E89FE30E943503809161008F5F809323
S11302A0610080916100893148F31092600080916F
S11302B06200823008F00BCF60E080E00E94D2013F
S11302C060E081E00E94D20161E082E00E94CE0100
S11302D060E070E48CE995E40E94350361E082E01B
S11302E00E94D2011092610013C060E081E00E947C
S11302F0D60161E081E00E94D60160E070E080E810
S11303009FE30E943503809161008F5F80936100B9
S113031080916100893148F360E081E00E94D2015C
S113032061E081E00E94D20161E080E00E94CE01A0
S113033060E082E00E94CE01109261000BC060E098
S113034070E088EC92E40E943503809161008F5F35
S11303508093610080916100823388F361E080E0E2
S11303600E94D20160E082E00E94D20110926000FB
S1130370AECE1F920F920FB60F9211248F9381E08D
S1130380809360008AB78ABF8F910F900FBE0F9041
S11303901F90189541E00E94FA01089541E00E94DF
S11303A07B02089540E00E947B020895CF93DF937F
S11303B0C82FD62F0E94CE0160E070E088EC92E452
S11303C00E9435036D2F8C2F0E94D20160E070E0F3
S11303D088EC92E40E943503DF91CF91089540E0C8
S11303E00E94FA0108950E943E000E94670080E086
S11303F090E00895643008F07DC0883008F07AC039
S11304004130B9F5613091F028F06230D9F06330B1
S113041029F12FC09AB321E030E0082E02C0220F48
S1130420331F0A94E2F7292B2ABB23C097B321E098
S113043030E0082E02C0220F331F0A94E2F7292B62
S113044027BB17C094B321E030E0082E02C0220F6E
S1130450331F0A94E2F7292B24BB0BC091B321E08C
S113046030E0082E02C0220F331F0A94E2F7292B32
S113047021BB41113FC06130A1F028F06230F9F096
S1130480633059F108954AB321E030E0B90102C064
S1130490660F771F8A95E2F7CB01809584238ABB88
S11304A0089547B321E030E0B90102C0660F771F19
S11304B08A95E2F7CB018095842387BB089544B3E2
S11304C021E030E0B90102C0660F771F8A95E2F798
S11304D0CB018095842384BB089541B321E030E0AF
S11304E0B90102C0660F771F8A95E2F7CB018095A8
S11304F0842381BB0895643008F07DC0883008F0FF
S11305007AC04130B9F5613091F028F06230D9F009
S1130510633029F12FC09BB321E030E0082E02C0E4
S1130520220F331F0A94E2F7292B2BBB23C098B365
S113053021E030E0082E02C0220F331F0A94E2F7B4
S1130540292B28BB17C095B321E030E0082E02C048
S1130550220F331F0A94E2F7292B25BB0BC092B359
S113056021E030E0082E02C0220F331F0A94E2F784
S1130570292B22BB41113FC06130A1F028F0623029
S1130580F9F0633059F108954BB321E030E0B9013B
S113059002C0660F771F8A95E2F7CB01809584230A
S11305A08BBB089548B321E030E0B90102C0660F67
S11305B0771F8A95E2F7CB018095842388BB089541
S11305C045B321E030E0B90102C0660F771F8A9578
S11305D0E2F7CB018095842385BB089542B321E0E3
S11305E030E0B90102C0660F771F8A95E2F7CB01AC
S11305F08095842382BB08958FB780688FBF089548
S113060085B7816085BF85B7826085BF8AB78064FE
S11306108ABF08958BB780648BBF089513BE823060
S113062091F028F4882349F0813049F0089584300A
S113063091F068F0853099F0089513BE089583B75A
S1130640816083BF089583B7826083BF089583B7B1
S1130650836083BF089583B7846083BF089583B79D
S1130660856083BF089582BF0895CF92DF92EF9291
S1130670FF926B017C0183E00E940E0320E030E0D6
S113068044E752E4C701B6010E94BB030E945C0325
S113069020E030E008C003B600FEFDCF83B78160E0
S11306A083BF2F5F3F4F26173707A8F313BEFF9072
S11306B0EF90DF90CF9008950E9463036894B11186
S11306C00C94B50308950E949A0388F09F5798F0FC
S11306D0B92F9927B751B0F0E1F0660F771F881F43
S11306E0991F1AF0BA95C9F714C0B13091F00E945D
S11306F0B403B1E008950C94B403672F782F8827CE
S1130700B85F39F0B93FCCF3869577956795B39583
S1130710D9F73EF490958095709561957F4F8F4FF2
S11307209F4F089557FD9058440F551F59F05F3F50
S113073071F04795880F97FB991F61F09F3F79F0FF
S113074087950895121613061406551FF2CF469581
S1130750F1DF08C0161617061806991FF1CF869503
S11307607105610508940895E894BB2766277727E7
S1130770CB0197F908950E94CE030C943F040E9484
S1130780310438F00E94380420F0952311F00C94C1
S113079028040C942E0411240C94B5030E94920393
S11307A070F3959FC1F3950F50E0551F629FF001C0
S11307B0729FBB27F00DB11D639FAA27F00DB11DD9
S11307C0AA1F649F6627B00DA11D661F829F222762
S11307D0B00DA11D621F739FB00DA11D621F839FE9
S11307E0A00D611D221F749F3327A00D611D231FBF
S11307F0849F600D211D822F762F6A2F11249F570D
S113080050409AF0F1F088234AF0EE0FFF1FBB1F0F
S1130810661F771F881F91505040A9F79E3F5105CE
S113082080F00C9428040C94B5035F3FE4F3983EE5
S1130830D4F3869577956795B795F795E7959F5F78
S1130840C1F7FE2B880F911D9695879597F908950A
S113085097F99F6780E870E060E008959FEF80EC6F
S1130860089500240A941616170618060906089512
S113087000240A9412161306140605060895092E78
S11308800394000C11F4882352F0BB0F40F4BF2BE7
S113089011F460FF04C06F5F7F4F8F4F9F4F089527
S10708A0F894FFCFF6
S9030000FC
